{
  "_format": "hh3-artifact-1",
  "contractName": "SwapTokens",
  "sourceName": "contracts/swapToken.sol",
  "abi": [
    {
      "inputs": [
        {
          "internalType": "address",
          "name": "_tokenA",
          "type": "address"
        },
        {
          "internalType": "address",
          "name": "_tokenB",
          "type": "address"
        }
      ],
      "stateMutability": "nonpayable",
      "type": "constructor"
    },
    {
      "inputs": [],
      "name": "owner",
      "outputs": [
        {
          "internalType": "address",
          "name": "",
          "type": "address"
        }
      ],
      "stateMutability": "view",
      "type": "function"
    },
    {
      "inputs": [],
      "name": "rate",
      "outputs": [
        {
          "internalType": "uint256",
          "name": "",
          "type": "uint256"
        }
      ],
      "stateMutability": "view",
      "type": "function"
    },
    {
      "inputs": [
        {
          "internalType": "uint256",
          "name": "amountA",
          "type": "uint256"
        }
      ],
      "name": "swapAforB",
      "outputs": [],
      "stateMutability": "nonpayable",
      "type": "function"
    },
    {
      "inputs": [
        {
          "internalType": "uint256",
          "name": "amountB",
          "type": "uint256"
        }
      ],
      "name": "swapBforA",
      "outputs": [],
      "stateMutability": "nonpayable",
      "type": "function"
    },
    {
      "inputs": [],
      "name": "tokenA",
      "outputs": [
        {
          "internalType": "address",
          "name": "",
          "type": "address"
        }
      ],
      "stateMutability": "view",
      "type": "function"
    },
    {
      "inputs": [],
      "name": "tokenB",
      "outputs": [
        {
          "internalType": "address",
          "name": "",
          "type": "address"
        }
      ],
      "stateMutability": "view",
      "type": "function"
    }
  ],
  "bytecode": "0x6080604052600380553480156012575f5ffd5b506040516103d13803806103d1833981016040819052602f916088565b5f80546001600160a01b039384166001600160a01b031991821617909155600180549290931691811691909117909155600280549091163317905560b4565b80516001600160a01b03811681146083575f5ffd5b919050565b5f5f604083850312156098575f5ffd5b609f83606e565b915060ab60208401606e565b90509250929050565b610310806100c15f395ff3fe608060405234801561000f575f5ffd5b5060043610610060575f3560e01c80630fc63d10146100645780632c4e722e146100935780635f64b55b146100aa5780638014a7aa146100bd5780638da5cb5b146100d2578063e4f1f70a146100e5575b5f5ffd5b5f54610076906001600160a01b031681565b6040516001600160a01b0390911681526020015b60405180910390f35b61009c60035481565b60405190815260200161008a565b600154610076906001600160a01b031681565b6100d06100cb36600461027b565b6100f8565b005b600254610076906001600160a01b031681565b6100d06100f336600461027b565b6101d0565b6001546040516323b872dd60e01b8152336004820152306024820152604481018390526001600160a01b03909116906323b872dd906064015f604051808303815f87803b158015610147575f5ffd5b505af1158015610159573d5f5f3e3d5ffd5b505050505f6003548261016c9190610292565b5f5460405163a9059cbb60e01b8152336004820152602481018390529192506001600160a01b03169063a9059cbb906044015b5f604051808303815f87803b1580156101b6575f5ffd5b505af11580156101c8573d5f5f3e3d5ffd5b505050505050565b5f546040516323b872dd60e01b8152336004820152306024820152604481018390526001600160a01b03909116906323b872dd906064015f604051808303815f87803b15801561021e575f5ffd5b505af1158015610230573d5f5f3e3d5ffd5b505050505f6003548261024391906102b1565b60015460405163a9059cbb60e01b8152336004820152602481018390529192506001600160a01b03169063a9059cbb9060440161019f565b5f6020828403121561028b575f5ffd5b5035919050565b5f826102ac57634e487b7160e01b5f52601260045260245ffd5b500490565b80820281158282048414176102d457634e487b7160e01b5f52601160045260245ffd5b9291505056fea264697066735822122034ebc8f323e8dce0e852186f6623c3ce216044c45614432212fc7f6a51e097cd64736f6c634300081c0033",
  "linkReferences": {},
  "deployedLinkReferences": {},
  "immutableReferences": {},
  "inputSourceName": "project/contracts/swapToken.sol",
  "buildInfoId": "solc-0_8_28-87bfdd0b06e324206c788ae850ac8d5bde3a04e8"
}