{
  "_format": "hh3-artifact-1",
  "contractName": "SwapTokens",
  "sourceName": "contracts/swapToken.sol",
  "abi": [
    {
      "inputs": [
        {
          "internalType": "address",
          "name": "_tokenA",
          "type": "address"
        },
        {
          "internalType": "address",
          "name": "_tokenB",
          "type": "address"
        }
      ],
      "stateMutability": "nonpayable",
      "type": "constructor"
    },
    {
      "inputs": [],
      "name": "owner",
      "outputs": [
        {
          "internalType": "address",
          "name": "",
          "type": "address"
        }
      ],
      "stateMutability": "view",
      "type": "function"
    },
    {
      "inputs": [],
      "name": "rate",
      "outputs": [
        {
          "internalType": "uint256",
          "name": "",
          "type": "uint256"
        }
      ],
      "stateMutability": "view",
      "type": "function"
    },
    {
      "inputs": [
        {
          "internalType": "uint256",
          "name": "amountA",
          "type": "uint256"
        }
      ],
      "name": "swapAforB",
      "outputs": [],
      "stateMutability": "nonpayable",
      "type": "function"
    },
    {
      "inputs": [
        {
          "internalType": "uint256",
          "name": "amountB",
          "type": "uint256"
        }
      ],
      "name": "swapBforA",
      "outputs": [],
      "stateMutability": "nonpayable",
      "type": "function"
    },
    {
      "inputs": [],
      "name": "tokenA",
      "outputs": [
        {
          "internalType": "address",
          "name": "",
          "type": "address"
        }
      ],
      "stateMutability": "view",
      "type": "function"
    },
    {
      "inputs": [],
      "name": "tokenB",
      "outputs": [
        {
          "internalType": "address",
          "name": "",
          "type": "address"
        }
      ],
      "stateMutability": "view",
      "type": "function"
    }
  ],
  "bytecode": "0x6080604052600380553480156012575f5ffd5b50604051610454380380610454833981016040819052602f916088565b5f80546001600160a01b039384166001600160a01b031991821617909155600180549290931691811691909117909155600280549091163317905560b4565b80516001600160a01b03811681146083575f5ffd5b919050565b5f5f604083850312156098575f5ffd5b609f83606e565b915060ab60208401606e565b90509250929050565b610393806100c15f395ff3fe608060405234801561000f575f5ffd5b5060043610610060575f3560e01c80630fc63d10146100645780632c4e722e146100935780635f64b55b146100aa5780638014a7aa146100bd5780638da5cb5b146100d2578063e4f1f70a146100e5575b5f5ffd5b5f54610076906001600160a01b031681565b6040516001600160a01b0390911681526020015b60405180910390f35b61009c60035481565b60405190815260200161008a565b600154610076906001600160a01b031681565b6100d06100cb3660046102e3565b6100f8565b005b600254610076906001600160a01b031681565b6100d06100f33660046102e3565b610238565b600354610105908261030e565b156101605760405162461bcd60e51b815260206004820152602160248201527f416d6f756e7442206d75737420626520646976697369626c65206279207261746044820152606560f81b606482015260840160405180910390fd5b5f6003548261016f9190610321565b6001546040516323b872dd60e01b8152336004820152306024820152604481018590529192506001600160a01b0316906323b872dd906064015f604051808303815f87803b1580156101bf575f5ffd5b505af11580156101d1573d5f5f3e3d5ffd5b50505f5460405163a9059cbb60e01b8152336004820152602481018590526001600160a01b03909116925063a9059cbb91506044015b5f604051808303815f87803b15801561021e575f5ffd5b505af1158015610230573d5f5f3e3d5ffd5b505050505050565b5f600354826102479190610334565b5f546040516323b872dd60e01b8152336004820152306024820152604481018590529192506001600160a01b0316906323b872dd906064015f604051808303815f87803b158015610296575f5ffd5b505af11580156102a8573d5f5f3e3d5ffd5b505060015460405163a9059cbb60e01b8152336004820152602481018590526001600160a01b03909116925063a9059cbb9150604401610207565b5f602082840312156102f3575f5ffd5b5035919050565b634e487b7160e01b5f52601260045260245ffd5b5f8261031c5761031c6102fa565b500690565b5f8261032f5761032f6102fa565b500490565b808202811582820484141761035757634e487b7160e01b5f52601160045260245ffd5b9291505056fea26469706673582212205a42bd5fe1218ce44ccac387f1bc960ac449fc1caab7b80922898aaf8b6244b664736f6c634300081c0033",
  "linkReferences": {},
  "deployedLinkReferences": {},
  "immutableReferences": {},
  "inputSourceName": "project/contracts/swapToken.sol",
  "buildInfoId": "solc-0_8_28-91d3cb2a25dd058d39b3c673abca5549a9dfb80c"
}