{
  "_format": "hh3-artifact-1",
  "contractName": "TokenB",
  "sourceName": "contracts/tokenB.sol",
  "abi": [
    {
      "inputs": [
        {
          "internalType": "string",
          "name": "_tokenName",
          "type": "string"
        },
        {
          "internalType": "string",
          "name": "_tokenSymbol",
          "type": "string"
        }
      ],
      "stateMutability": "nonpayable",
      "type": "constructor"
    },
    {
      "anonymous": false,
      "inputs": [
        {
          "indexed": true,
          "internalType": "address",
          "name": "owner",
          "type": "address"
        },
        {
          "indexed": true,
          "internalType": "address",
          "name": "spender",
          "type": "address"
        },
        {
          "indexed": false,
          "internalType": "uint256",
          "name": "amount",
          "type": "uint256"
        }
      ],
      "name": "Approve",
      "type": "event"
    },
    {
      "anonymous": false,
      "inputs": [
        {
          "indexed": true,
          "internalType": "address",
          "name": "sender",
          "type": "address"
        },
        {
          "indexed": true,
          "internalType": "address",
          "name": "reciepient",
          "type": "address"
        },
        {
          "indexed": true,
          "internalType": "uint256",
          "name": "amount",
          "type": "uint256"
        }
      ],
      "name": "Transfer",
      "type": "event"
    },
    {
      "anonymous": false,
      "inputs": [
        {
          "indexed": true,
          "internalType": "address",
          "name": "owner",
          "type": "address"
        },
        {
          "indexed": true,
          "internalType": "address",
          "name": "spender",
          "type": "address"
        },
        {
          "indexed": false,
          "internalType": "uint256",
          "name": "amount",
          "type": "uint256"
        }
      ],
      "name": "TransferFrom",
      "type": "event"
    },
    {
      "inputs": [
        {
          "internalType": "address",
          "name": "owner",
          "type": "address"
        },
        {
          "internalType": "address",
          "name": "spender",
          "type": "address"
        }
      ],
      "name": "allowance",
      "outputs": [
        {
          "internalType": "uint256",
          "name": "",
          "type": "uint256"
        }
      ],
      "stateMutability": "view",
      "type": "function"
    },
    {
      "inputs": [
        {
          "internalType": "address",
          "name": "spender",
          "type": "address"
        },
        {
          "internalType": "uint256",
          "name": "amount",
          "type": "uint256"
        }
      ],
      "name": "approve",
      "outputs": [],
      "stateMutability": "nonpayable",
      "type": "function"
    },
    {
      "inputs": [
        {
          "internalType": "address",
          "name": "tokenHolder",
          "type": "address"
        }
      ],
      "name": "balanceOf",
      "outputs": [
        {
          "internalType": "uint256",
          "name": "",
          "type": "uint256"
        }
      ],
      "stateMutability": "view",
      "type": "function"
    },
    {
      "inputs": [],
      "name": "getTokenValue",
      "outputs": [
        {
          "internalType": "uint256",
          "name": "",
          "type": "uint256"
        }
      ],
      "stateMutability": "view",
      "type": "function"
    },
    {
      "inputs": [
        {
          "internalType": "address",
          "name": "reciever",
          "type": "address"
        },
        {
          "internalType": "uint256",
          "name": "amount",
          "type": "uint256"
        }
      ],
      "name": "mint",
      "outputs": [],
      "stateMutability": "nonpayable",
      "type": "function"
    },
    {
      "inputs": [],
      "name": "name",
      "outputs": [
        {
          "internalType": "string",
          "name": "",
          "type": "string"
        }
      ],
      "stateMutability": "view",
      "type": "function"
    },
    {
      "inputs": [],
      "name": "symbol",
      "outputs": [
        {
          "internalType": "string",
          "name": "",
          "type": "string"
        }
      ],
      "stateMutability": "view",
      "type": "function"
    },
    {
      "inputs": [
        {
          "internalType": "address",
          "name": "recipient",
          "type": "address"
        },
        {
          "internalType": "uint256",
          "name": "amount",
          "type": "uint256"
        }
      ],
      "name": "transfer",
      "outputs": [],
      "stateMutability": "nonpayable",
      "type": "function"
    },
    {
      "inputs": [
        {
          "internalType": "address",
          "name": "owner",
          "type": "address"
        },
        {
          "internalType": "address",
          "name": "spender",
          "type": "address"
        },
        {
          "internalType": "uint256",
          "name": "amount",
          "type": "uint256"
        }
      ],
      "name": "transferFrom",
      "outputs": [],
      "stateMutability": "nonpayable",
      "type": "function"
    }
  ],
  "bytecode": "0x60806040526003600255348015610014575f5ffd5b50604051610c99380380610c99833981016040819052610033916100f0565b5f61003e83826101d9565b50600161004b82826101d9565b505050610293565b634e487b7160e01b5f52604160045260245ffd5b5f82601f830112610076575f5ffd5b81516001600160401b0381111561008f5761008f610053565b604051601f8201601f19908116603f011681016001600160401b03811182821017156100bd576100bd610053565b6040528181528382016020018510156100d4575f5ffd5b8160208501602083015e5f918101602001919091529392505050565b5f5f60408385031215610101575f5ffd5b82516001600160401b03811115610116575f5ffd5b61012285828601610067565b602085015190935090506001600160401b0381111561013f575f5ffd5b61014b85828601610067565b9150509250929050565b600181811c9082168061016957607f821691505b60208210810361018757634e487b7160e01b5f52602260045260245ffd5b50919050565b601f8211156101d457805f5260205f20601f840160051c810160208510156101b25750805b601f840160051c820191505b818110156101d1575f81556001016101be565b50505b505050565b81516001600160401b038111156101f2576101f2610053565b610206816102008454610155565b8461018d565b6020601f821160018114610238575f83156102215750848201515b5f19600385901b1c1916600184901b1784556101d1565b5f84815260208120601f198516915b828110156102675787850151825560209485019460019092019101610247565b508482101561028457868401515f19600387901b60f8161c191681555b50505050600190811b01905550565b6109f9806102a05f395ff3fe608060405234801561000f575f5ffd5b5060043610610090575f3560e01c806340c10f191161006357806340c10f19146100ec57806370a08231146100ff57806395d89b4114610127578063a9059cbb1461012f578063dd62ed3e14610142575f5ffd5b806306fdde031461009457806306ffce53146100b2578063095ea7b3146100c457806323b872dd146100d9575b5f5ffd5b61009c610155565b6040516100a99190610800565b60405180910390f35b6002545b6040519081526020016100a9565b6100d76100d2366004610850565b6101e4565b005b6100d76100e7366004610878565b61028e565b6100d76100fa366004610850565b610579565b6100b661010d3660046108b2565b6001600160a01b03165f9081526003602052604090205490565b61009c6105cf565b6100d761013d366004610850565b6105de565b6100b66101503660046108d2565b610786565b60605f805461016390610903565b80601f016020809104026020016040519081016040528092919081815260200182805461018f90610903565b80156101da5780601f106101b1576101008083540402835291602001916101da565b820191905f5260205f20905b8154815290600101906020018083116101bd57829003601f168201915b5050505050905090565b6001600160a01b0382166102135760405162461bcd60e51b815260040161020a9061093b565b60405180910390fd5b335f9081526004602090815260408083206001600160a01b038616845290915281208054839290610245908490610986565b90915550506040518181526001600160a01b0383169033907f6e11fb1b7f119e3f2fa29896ef5fdf8b8a2d0d4df6fe90ba8668e7d8b2ffa25e9060200160405180910390a35050565b6001600160a01b0383166102db5760405162461bcd60e51b8152602060048201526014602482015273496e76616c69642061646472657373207a65726f60601b604482015260640161020a565b6001600160a01b0382166103285760405162461bcd60e51b8152602060048201526014602482015273496e76616c69642061646472657373207a65726f60601b604482015260640161020a565b5f81116103685760405162461bcd60e51b815260206004820152600e60248201526d125b9d985b1a5908185b5bdd5b9d60921b604482015260640161020a565b6001600160a01b038084165f90815260046020908152604080832093861683529290522054818110156103d65760405162461bcd60e51b8152602060048201526016602482015275496e73756666696369656e7420616c6c6f77616e636560501b604482015260640161020a565b6040516370a0823160e01b81526001600160a01b03851660048201525f9030906370a0823190602401602060405180830381865afa15801561041a573d5f5f3e3d5ffd5b505050506040513d601f19601f8201168201806040525081019061043e9190610999565b9050828110156104905760405162461bcd60e51b815260206004820152601a60248201527f496e73756666696369656e74206f776e65722062616c616e6365000000000000604482015260640161020a565b6001600160a01b038086165f908152600460209081526040808320938816835292905290812080548592906104c69084906109b0565b90915550506001600160a01b0385165f90815260036020526040812080548592906104f29084906109b0565b90915550506001600160a01b0384165f908152600360205260408120805485929061051e908490610986565b92505081905550836001600160a01b0316856001600160a01b03167fc0d84ce5c7ff9ca21adb0f8436ff3f4951b4bb78c4e2fae2b6837958b3946ffd8560405161056a91815260200190565b60405180910390a35050505050565b6001600160a01b03821661059f5760405162461bcd60e51b815260040161020a9061093b565b6001600160a01b0382165f90815260036020526040812080548392906105c6908490610986565b90915550505050565b60606001805461016390610903565b6001600160a01b0382166106045760405162461bcd60e51b815260040161020a9061093b565b5f81116106535760405162461bcd60e51b815260206004820181905260248201527f416d6f756e74206d7573742062652067726561746572207468616e207a65726f604482015260640161020a565b6040516370a0823160e01b81523360048201525f9030906370a0823190602401602060405180830381865afa15801561068e573d5f5f3e3d5ffd5b505050506040513d601f19601f820116820180604052508101906106b29190610999565b9050818110156106fb5760405162461bcd60e51b8152602060048201526014602482015273496e73756666696369656e742062616c616e636560601b604482015260640161020a565b335f90815260036020526040812080548492906107199084906109b0565b90915550506001600160a01b0383165f9081526003602052604081208054849290610745908490610986565b909155505060405182906001600160a01b0385169033907fddf252ad1be2c89b69c2b068fc378daa952ba7f163c4a11628f55a4df523b3ef905f90a4505050565b5f6001600160a01b0383166107ad5760405162461bcd60e51b815260040161020a9061093b565b6001600160a01b0382166107d35760405162461bcd60e51b815260040161020a9061093b565b506001600160a01b038083165f908152600460209081526040808320938516835292905220545b92915050565b602081525f82518060208401528060208501604085015e5f604082850101526040601f19601f83011684010191505092915050565b80356001600160a01b038116811461084b575f5ffd5b919050565b5f5f60408385031215610861575f5ffd5b61086a83610835565b946020939093013593505050565b5f5f5f6060848603121561088a575f5ffd5b61089384610835565b92506108a160208501610835565b929592945050506040919091013590565b5f602082840312156108c2575f5ffd5b6108cb82610835565b9392505050565b5f5f604083850312156108e3575f5ffd5b6108ec83610835565b91506108fa60208401610835565b90509250929050565b600181811c9082168061091757607f821691505b60208210810361093557634e487b7160e01b5f52602260045260245ffd5b50919050565b6020808252601d908201527f496e76616c69642061646472657373207a65726f206465746563746564000000604082015260600190565b634e487b7160e01b5f52601160045260245ffd5b808201808211156107fa576107fa610972565b5f602082840312156109a9575f5ffd5b5051919050565b818103818111156107fa576107fa61097256fea2646970667358221220543ff1a42358ad3776f652520dd48b8dbe1e3197ded3bfa7abad7939fc55494a64736f6c634300081c0033",
  "linkReferences": {},
  "deployedLinkReferences": {},
  "immutableReferences": {},
  "inputSourceName": "project/contracts/tokenB.sol",
  "buildInfoId": "solc-0_8_28-baa52b590b76f90d6be85b695136bb92c7e0cb7d"
}