{
  "_format": "hh3-artifact-1",
  "contractName": "TokenA",
  "sourceName": "contracts/tokenA.sol",
  "abi": [
    {
      "inputs": [
        {
          "internalType": "string",
          "name": "_tokenName",
          "type": "string"
        },
        {
          "internalType": "string",
          "name": "_tokenSymbol",
          "type": "string"
        }
      ],
      "stateMutability": "nonpayable",
      "type": "constructor"
    },
    {
      "anonymous": false,
      "inputs": [
        {
          "indexed": true,
          "internalType": "address",
          "name": "owner",
          "type": "address"
        },
        {
          "indexed": true,
          "internalType": "address",
          "name": "spender",
          "type": "address"
        },
        {
          "indexed": false,
          "internalType": "uint256",
          "name": "amount",
          "type": "uint256"
        }
      ],
      "name": "Approve",
      "type": "event"
    },
    {
      "anonymous": false,
      "inputs": [
        {
          "indexed": true,
          "internalType": "address",
          "name": "sender",
          "type": "address"
        },
        {
          "indexed": true,
          "internalType": "address",
          "name": "reciepient",
          "type": "address"
        },
        {
          "indexed": true,
          "internalType": "uint256",
          "name": "amount",
          "type": "uint256"
        }
      ],
      "name": "Transfer",
      "type": "event"
    },
    {
      "anonymous": false,
      "inputs": [
        {
          "indexed": true,
          "internalType": "address",
          "name": "owner",
          "type": "address"
        },
        {
          "indexed": true,
          "internalType": "address",
          "name": "spender",
          "type": "address"
        },
        {
          "indexed": false,
          "internalType": "uint256",
          "name": "amount",
          "type": "uint256"
        }
      ],
      "name": "TransferFrom",
      "type": "event"
    },
    {
      "inputs": [
        {
          "internalType": "address",
          "name": "owner",
          "type": "address"
        },
        {
          "internalType": "address",
          "name": "spender",
          "type": "address"
        }
      ],
      "name": "allowance",
      "outputs": [
        {
          "internalType": "uint256",
          "name": "",
          "type": "uint256"
        }
      ],
      "stateMutability": "view",
      "type": "function"
    },
    {
      "inputs": [
        {
          "internalType": "address",
          "name": "spender",
          "type": "address"
        },
        {
          "internalType": "uint256",
          "name": "amount",
          "type": "uint256"
        }
      ],
      "name": "approve",
      "outputs": [],
      "stateMutability": "nonpayable",
      "type": "function"
    },
    {
      "inputs": [
        {
          "internalType": "address",
          "name": "tokenHolder",
          "type": "address"
        }
      ],
      "name": "balanceOf",
      "outputs": [
        {
          "internalType": "uint256",
          "name": "",
          "type": "uint256"
        }
      ],
      "stateMutability": "view",
      "type": "function"
    },
    {
      "inputs": [],
      "name": "getTokenValue",
      "outputs": [
        {
          "internalType": "uint256",
          "name": "",
          "type": "uint256"
        }
      ],
      "stateMutability": "view",
      "type": "function"
    },
    {
      "inputs": [
        {
          "internalType": "address",
          "name": "reciever",
          "type": "address"
        },
        {
          "internalType": "uint256",
          "name": "amount",
          "type": "uint256"
        }
      ],
      "name": "mint",
      "outputs": [],
      "stateMutability": "nonpayable",
      "type": "function"
    },
    {
      "inputs": [],
      "name": "name",
      "outputs": [
        {
          "internalType": "string",
          "name": "",
          "type": "string"
        }
      ],
      "stateMutability": "view",
      "type": "function"
    },
    {
      "inputs": [],
      "name": "symbol",
      "outputs": [
        {
          "internalType": "string",
          "name": "",
          "type": "string"
        }
      ],
      "stateMutability": "view",
      "type": "function"
    },
    {
      "inputs": [],
      "name": "tokenValue",
      "outputs": [
        {
          "internalType": "uint256",
          "name": "",
          "type": "uint256"
        }
      ],
      "stateMutability": "view",
      "type": "function"
    },
    {
      "inputs": [
        {
          "internalType": "address",
          "name": "recipient",
          "type": "address"
        },
        {
          "internalType": "uint256",
          "name": "amount",
          "type": "uint256"
        }
      ],
      "name": "transfer",
      "outputs": [],
      "stateMutability": "nonpayable",
      "type": "function"
    },
    {
      "inputs": [
        {
          "internalType": "address",
          "name": "owner",
          "type": "address"
        },
        {
          "internalType": "address",
          "name": "spender",
          "type": "address"
        },
        {
          "internalType": "uint256",
          "name": "amount",
          "type": "uint256"
        }
      ],
      "name": "transferFrom",
      "outputs": [],
      "stateMutability": "nonpayable",
      "type": "function"
    }
  ],
  "bytecode": "0x60806040526001600255348015610014575f5ffd5b50604051610cad380380610cad833981016040819052610033916100f0565b5f61003e83826101d9565b50600161004b82826101d9565b505050610293565b634e487b7160e01b5f52604160045260245ffd5b5f82601f830112610076575f5ffd5b81516001600160401b0381111561008f5761008f610053565b604051601f8201601f19908116603f011681016001600160401b03811182821017156100bd576100bd610053565b6040528181528382016020018510156100d4575f5ffd5b8160208501602083015e5f918101602001919091529392505050565b5f5f60408385031215610101575f5ffd5b82516001600160401b03811115610116575f5ffd5b61012285828601610067565b602085015190935090506001600160401b0381111561013f575f5ffd5b61014b85828601610067565b9150509250929050565b600181811c9082168061016957607f821691505b60208210810361018757634e487b7160e01b5f52602260045260245ffd5b50919050565b601f8211156101d457805f5260205f20601f840160051c810160208510156101b25750805b601f840160051c820191505b818110156101d1575f81556001016101be565b50505b505050565b81516001600160401b038111156101f2576101f2610053565b610206816102008454610155565b8461018d565b6020601f821160018114610238575f83156102215750848201515b5f19600385901b1c1916600184901b1784556101d1565b5f84815260208120601f198516915b828110156102675787850151825560209485019460019092019101610247565b508482101561028457868401515f19600387901b60f8161c191681555b50505050600190811b01905550565b610a0d806102a05f395ff3fe608060405234801561000f575f5ffd5b506004361061009b575f3560e01c806340c10f191161006357806340c10f191461010057806370a082311461011357806395d89b411461013b578063a9059cbb14610143578063dd62ed3e14610156575f5ffd5b806306fdde031461009f57806306ffce53146100bd578063095ea7b3146100cf5780631ec7e345146100e457806323b872dd146100ed575b5f5ffd5b6100a7610169565b6040516100b49190610814565b60405180910390f35b6002545b6040519081526020016100b4565b6100e26100dd366004610864565b6101f8565b005b6100c160025481565b6100e26100fb36600461088c565b6102a2565b6100e261010e366004610864565b61058d565b6100c16101213660046108c6565b6001600160a01b03165f9081526003602052604090205490565b6100a76105e3565b6100e2610151366004610864565b6105f2565b6100c16101643660046108e6565b61079a565b60605f805461017790610917565b80601f01602080910402602001604051908101604052809291908181526020018280546101a390610917565b80156101ee5780601f106101c5576101008083540402835291602001916101ee565b820191905f5260205f20905b8154815290600101906020018083116101d157829003601f168201915b5050505050905090565b6001600160a01b0382166102275760405162461bcd60e51b815260040161021e9061094f565b60405180910390fd5b335f9081526004602090815260408083206001600160a01b03861684529091528120805483929061025990849061099a565b90915550506040518181526001600160a01b0383169033907f6e11fb1b7f119e3f2fa29896ef5fdf8b8a2d0d4df6fe90ba8668e7d8b2ffa25e9060200160405180910390a35050565b6001600160a01b0383166102ef5760405162461bcd60e51b8152602060048201526014602482015273496e76616c69642061646472657373207a65726f60601b604482015260640161021e565b6001600160a01b03821661033c5760405162461bcd60e51b8152602060048201526014602482015273496e76616c69642061646472657373207a65726f60601b604482015260640161021e565b5f811161037c5760405162461bcd60e51b815260206004820152600e60248201526d125b9d985b1a5908185b5bdd5b9d60921b604482015260640161021e565b6001600160a01b038084165f90815260046020908152604080832093861683529290522054818110156103ea5760405162461bcd60e51b8152602060048201526016602482015275496e73756666696369656e7420616c6c6f77616e636560501b604482015260640161021e565b6040516370a0823160e01b81526001600160a01b03851660048201525f9030906370a0823190602401602060405180830381865afa15801561042e573d5f5f3e3d5ffd5b505050506040513d601f19601f8201168201806040525081019061045291906109ad565b9050828110156104a45760405162461bcd60e51b815260206004820152601a60248201527f496e73756666696369656e74206f776e65722062616c616e6365000000000000604482015260640161021e565b6001600160a01b038086165f908152600460209081526040808320938816835292905290812080548592906104da9084906109c4565b90915550506001600160a01b0385165f90815260036020526040812080548592906105069084906109c4565b90915550506001600160a01b0384165f908152600360205260408120805485929061053290849061099a565b92505081905550836001600160a01b0316856001600160a01b03167fc0d84ce5c7ff9ca21adb0f8436ff3f4951b4bb78c4e2fae2b6837958b3946ffd8560405161057e91815260200190565b60405180910390a35050505050565b6001600160a01b0382166105b35760405162461bcd60e51b815260040161021e9061094f565b6001600160a01b0382165f90815260036020526040812080548392906105da90849061099a565b90915550505050565b60606001805461017790610917565b6001600160a01b0382166106185760405162461bcd60e51b815260040161021e9061094f565b5f81116106675760405162461bcd60e51b815260206004820181905260248201527f416d6f756e74206d7573742062652067726561746572207468616e207a65726f604482015260640161021e565b6040516370a0823160e01b81523360048201525f9030906370a0823190602401602060405180830381865afa1580156106a2573d5f5f3e3d5ffd5b505050506040513d601f19601f820116820180604052508101906106c691906109ad565b90508181101561070f5760405162461bcd60e51b8152602060048201526014602482015273496e73756666696369656e742062616c616e636560601b604482015260640161021e565b335f908152600360205260408120805484929061072d9084906109c4565b90915550506001600160a01b0383165f908152600360205260408120805484929061075990849061099a565b909155505060405182906001600160a01b0385169033907fddf252ad1be2c89b69c2b068fc378daa952ba7f163c4a11628f55a4df523b3ef905f90a4505050565b5f6001600160a01b0383166107c15760405162461bcd60e51b815260040161021e9061094f565b6001600160a01b0382166107e75760405162461bcd60e51b815260040161021e9061094f565b506001600160a01b038083165f908152600460209081526040808320938516835292905220545b92915050565b602081525f82518060208401528060208501604085015e5f604082850101526040601f19601f83011684010191505092915050565b80356001600160a01b038116811461085f575f5ffd5b919050565b5f5f60408385031215610875575f5ffd5b61087e83610849565b946020939093013593505050565b5f5f5f6060848603121561089e575f5ffd5b6108a784610849565b92506108b560208501610849565b929592945050506040919091013590565b5f602082840312156108d6575f5ffd5b6108df82610849565b9392505050565b5f5f604083850312156108f7575f5ffd5b61090083610849565b915061090e60208401610849565b90509250929050565b600181811c9082168061092b57607f821691505b60208210810361094957634e487b7160e01b5f52602260045260245ffd5b50919050565b6020808252601d908201527f496e76616c69642061646472657373207a65726f206465746563746564000000604082015260600190565b634e487b7160e01b5f52601160045260245ffd5b8082018082111561080e5761080e610986565b5f602082840312156109bd575f5ffd5b5051919050565b8181038181111561080e5761080e61098656fea26469706673582212201e93c7768969b7c437933dd60da52624d4c02e11e13fa61461ef78220399dd0b64736f6c634300081c0033",
  "linkReferences": {},
  "deployedLinkReferences": {},
  "immutableReferences": {},
  "inputSourceName": "project/contracts/tokenA.sol",
  "buildInfoId": "solc-0_8_28-fe9fa31120975853f4a440c8fc288c6a2c17f196"
}